{"abi":[{"type":"constructor","inputs":[],"stateMutability":"nonpayable"},{"type":"receive","stateMutability":"payable"},{"type":"function","name":"authorizedNodes","inputs":[{"name":"","type":"address","internalType":"address"}],"outputs":[{"name":"","type":"bool","internalType":"bool"}],"stateMutability":"view"},{"type":"function","name":"getRequest","inputs":[{"name":"requestId","type":"uint256","internalType":"uint256"}],"outputs":[{"name":"","type":"tuple","internalType":"struct InferenceRegistry.InferenceRequest","components":[{"name":"requester","type":"address","internalType":"address"},{"name":"promptHash","type":"bytes32","internalType":"bytes32"},{"name":"modelId","type":"string","internalType":"string"},{"name":"timestamp","type":"uint256","internalType":"uint256"},{"name":"fulfilled","type":"bool","internalType":"bool"}]}],"stateMutability":"view"},{"type":"function","name":"getResult","inputs":[{"name":"requestId","type":"uint256","internalType":"uint256"}],"outputs":[{"name":"","type":"tuple","internalType":"struct InferenceRegistry.InferenceResult","components":[{"name":"resultHash","type":"bytes32","internalType":"bytes32"},{"name":"storagePointer","type":"string","internalType":"string"},{"name":"node","type":"address","internalType":"address"},{"name":"timestamp","type":"uint256","internalType":"uint256"}]}],"stateMutability":"view"},{"type":"function","name":"inferenceFee","inputs":[],"outputs":[{"name":"","type":"uint256","internalType":"uint256"}],"stateMutability":"view"},{"type":"function","name":"owner","inputs":[],"outputs":[{"name":"","type":"address","internalType":"address"}],"stateMutability":"view"},{"type":"function","name":"requestInference","inputs":[{"name":"promptHash","type":"bytes32","internalType":"bytes32"},{"name":"modelId","type":"string","internalType":"string"}],"outputs":[{"name":"requestId","type":"uint256","internalType":"uint256"}],"stateMutability":"payable"},{"type":"function","name":"setInferenceFee","inputs":[{"name":"newFee","type":"uint256","internalType":"uint256"}],"outputs":[],"stateMutability":"nonpayable"},{"type":"function","name":"setNodeAuthorization","inputs":[{"name":"node","type":"address","internalType":"address"},{"name":"authorized","type":"bool","internalType":"bool"}],"outputs":[],"stateMutability":"nonpayable"},{"type":"function","name":"submitResult","inputs":[{"name":"requestId","type":"uint256","internalType":"uint256"},{"name":"resultHash","type":"bytes32","internalType":"bytes32"},{"name":"storagePointer","type":"string","internalType":"string"}],"outputs":[],"stateMutability":"nonpayable"},{"type":"function","name":"totalRequests","inputs":[],"outputs":[{"name":"","type":"uint256","internalType":"uint256"}],"stateMutability":"view"},{"type":"function","name":"withdrawFees","inputs":[{"name":"to","type":"address","internalType":"address payable"}],"outputs":[],"stateMutability":"nonpayable"},{"type":"event","name":"FeeUpdated","inputs":[{"name":"newFee","type":"uint256","indexed":false,"internalType":"uint256"}],"anonymous":false},{"type":"event","name":"FeeWithdrawn","inputs":[{"name":"to","type":"address","indexed":true,"internalType":"address"},{"name":"amount","type":"uint256","indexed":false,"internalType":"uint256"}],"anonymous":false},{"type":"event","name":"InferenceRequested","inputs":[{"name":"requestId","type":"uint256","indexed":true,"internalType":"uint256"},{"name":"requester","type":"address","indexed":true,"internalType":"address"},{"name":"promptHash","type":"bytes32","indexed":false,"internalType":"bytes32"},{"name":"modelId","type":"string","indexed":false,"internalType":"string"},{"name":"timestamp","type":"uint256","indexed":false,"internalType":"uint256"}],"anonymous":false},{"type":"event","name":"InferenceResultSubmitted","inputs":[{"name":"requestId","type":"uint256","indexed":true,"internalType":"uint256"},{"name":"resultHash","type":"bytes32","indexed":false,"internalType":"bytes32"},{"name":"storagePointer","type":"string","indexed":false,"internalType":"string"},{"name":"node","type":"address","indexed":true,"internalType":"address"},{"name":"timestamp","type":"uint256","indexed":false,"internalType":"uint256"}],"anonymous":false},{"type":"event","name":"NodeAuthorized","inputs":[{"name":"node","type":"address","indexed":true,"internalType":"address"},{"name":"authorized","type":"bool","indexed":false,"internalType":"bool"}],"anonymous":false},{"type":"error","name":"InsufficientFee","inputs":[{"name":"required","type":"uint256","internalType":"uint256"},{"name":"provided","type":"uint256","internalType":"uint256"}]},{"type":"error","name":"NotAuthorizedNode","inputs":[{"name":"caller","type":"address","internalType":"address"}]},{"type":"error","name":"NotOwner","inputs":[{"name":"caller","type":"address","internalType":"address"}]},{"type":"error","name":"RequestAlreadyFulfilled","inputs":[{"name":"requestId","type":"uint256","internalType":"uint256"}]},{"type":"error","name":"RequestNotFound","inputs":[{"name":"requestId","type":"uint256","internalType":"uint256"}]},{"type":"error","name":"ZeroAddress","inputs":[]}],"bytecode":{"object":"0x608060405266038d7ea4c6800060015534801561001a575f80fd5b505f80546001600160a01b03191633908117825580825260056020908152604092839020805460ff19166001908117909155925192835290917f133bd293b8ca6fa1205d5bcb378f4c713567ae5ffec78c38d98ac59fe9c258bb910160405180910390a2610dcf8061008b5f395ff3fe60806040526004361061009d575f3560e01c806394a9b7931161006257806394a9b7931461017f578063995e43391461019e578063aabe7498146101ca578063c58343ef146101df578063e4943d7f1461020b578063f3c0e4791461021e575f80fd5b8063164e68de146100a857806340726f15146100c95780637e53a740146100e85780638aea61dc1461012b5780638da5cb5b14610149575f80fd5b366100a457005b5f80fd5b3480156100b3575f80fd5b506100c76100c23660046109a5565b61023d565b005b3480156100d4575f80fd5b506100c76100e33660046109c7565b610312565b3480156100f3575f80fd5b506101166101023660046109a5565b60056020525f908152604090205460ff1681565b60405190151581526020015b60405180910390f35b348015610136575f80fd5b506002545b604051908152602001610122565b348015610154575f80fd5b505f54610167906001600160a01b031681565b6040516001600160a01b039091168152602001610122565b34801561018a575f80fd5b506100c76101993660046109de565b610379565b3480156101a9575f80fd5b506101bd6101b83660046109c7565b610423565b6040516101229190610a5c565b3480156101d5575f80fd5b5061013b60015481565b3480156101ea575f80fd5b506101fe6101f93660046109c7565b610554565b6040516101229190610aac565b61013b610219366004610b4a565b61069b565b348015610229575f80fd5b506100c7610238366004610b92565b6107fb565b5f546001600160a01b0316331461026e5760405163245aecd360e01b81523360048201526024015b60405180910390fd5b6001600160a01b0381166102955760405163d92e233d60e01b815260040160405180910390fd5b60405147906001600160a01b0383169082156108fc029083905f818181858888f193505050501580156102ca573d5f803e3d5ffd5b50816001600160a01b03167f78473f3f373f7673597f4f0fa5873cb4d375fea6d4339ad6b56dbd411513cb3f8260405161030691815260200190565b60405180910390a25050565b5f546001600160a01b0316331461033e5760405163245aecd360e01b8152336004820152602401610265565b60018190556040518181527f8c4d35e54a3f2ef1134138fd8ea3daee6a3c89e10d2665996babdf70261e2c769060200160405180910390a150565b5f546001600160a01b031633146103a55760405163245aecd360e01b8152336004820152602401610265565b6001600160a01b0382166103cc5760405163d92e233d60e01b815260040160405180910390fd5b6001600160a01b0382165f81815260056020908152604091829020805460ff191685151590811790915591519182527f133bd293b8ca6fa1205d5bcb378f4c713567ae5ffec78c38d98ac59fe9c258bb9101610306565b604080516080810182525f808252606060208301819052928201819052918101919091525f8281526003602052604090206004015460ff1661047b57604051634ec726c760e01b815260048101839052602401610265565b60045f8381526020019081526020015f206040518060800160405290815f82015481526020016001820180546104b090610be1565b80601f01602080910402602001604051908101604052809291908181526020018280546104dc90610be1565b80156105275780601f106104fe57610100808354040283529160200191610527565b820191905f5260205f20905b81548152906001019060200180831161050a57829003601f168201915b505050918352505060028201546001600160a01b0316602082015260039091015460409091015292915050565b6040805160a0810182525f80825260208201819052606092820183905291810182905260808101919091525f8281526003602081905260408220015490036105b257604051634ec726c760e01b815260048101839052602401610265565b5f82815260036020908152604091829020825160a08101845281546001600160a01b0316815260018201549281019290925260028101805492939192918401916105fb90610be1565b80601f016020809104026020016040519081016040528092919081815260200182805461062790610be1565b80156106725780601f1061064957610100808354040283529160200191610672565b820191905f5260205f20905b81548152906001019060200180831161065557829003601f168201915b50505091835250506003820154602082015260049091015460ff16151560409091015292915050565b5f6001543410156106cc5760015460405163a458261b60e01b81526004810191909152346024820152604401610265565b60028054905f6106db83610c19565b9190505590506040518060a00160405280336001600160a01b0316815260200185815260200184848080601f0160208091040260200160405190810160405280939291908181526020018383808284375f92018290525093855250504260208085019190915260409384018390528583526003815291839020845181546001600160a01b0319166001600160a01b039091161781559184015160018301555090820151600282019061078d9082610c9f565b50606082015160038201556080909101516004909101805460ff1916911515919091179055604051339082907f62d43b1a1d4f08b688857442284d603b658289331c2ee903b49f06d575f6c907906107ec908890889088904290610d5b565b60405180910390a39392505050565b335f9081526005602052604090205460ff1661082c57604051633686f69760e11b8152336004820152602401610265565b5f84815260036020819052604082209081015490910361086257604051634ec726c760e01b815260048101869052602401610265565b600481015460ff161561088b57604051631409d1b760e21b815260048101869052602401610265565b60048101805460ff191660011790556040805160808101825285815281516020601f86018190048102820181019093528481529091808301919086908690819084018382808284375f92018290525093855250503360208085019190915242604094850152898352600481529290912083518155918301516001830191506109139082610c9f565b506040828101516002830180546001600160a01b0319166001600160a01b0390921691909117905560609092015160039091015551339086907fc7e18ab3857c6b6f115c7e7e86befaff5e63197179e618b8e50669f035a6e2d79061097f908890889088904290610d5b565b60405180910390a35050505050565b6001600160a01b03811681146109a2575f80fd5b50565b5f602082840312156109b5575f80fd5b81356109c08161098e565b9392505050565b5f602082840312156109d7575f80fd5b5035919050565b5f80604083850312156109ef575f80fd5b82356109fa8161098e565b915060208301358015158114610a0e575f80fd5b809150509250929050565b5f81518084525f5b81811015610a3d57602081850181015186830182015201610a21565b505f602082860101526020601f19601f83011685010191505092915050565b60208152815160208201525f602083015160806040840152610a8160a0840182610a19565b60408501516001600160a01b0316606085810191909152909401516080909301929092525090919050565b6020815260018060a01b038251166020820152602082015160408201525f604083015160a06060840152610ae360c0840182610a19565b9050606084015160808401526080840151151560a08401528091505092915050565b5f8083601f840112610b15575f80fd5b50813567ffffffffffffffff811115610b2c575f80fd5b602083019150836020828501011115610b43575f80fd5b9250929050565b5f805f60408486031215610b5c575f80fd5b83359250602084013567ffffffffffffffff811115610b79575f80fd5b610b8586828701610b05565b9497909650939450505050565b5f805f8060608587031215610ba5575f80fd5b8435935060208501359250604085013567ffffffffffffffff811115610bc9575f80fd5b610bd587828801610b05565b95989497509550505050565b600181811c90821680610bf557607f821691505b602082108103610c1357634e487b7160e01b5f52602260045260245ffd5b50919050565b5f60018201610c3657634e487b7160e01b5f52601160045260245ffd5b5060010190565b634e487b7160e01b5f52604160045260245ffd5b601f821115610c9a575f81815260208120601f850160051c81016020861015610c775750805b601f850160051c820191505b81811015610c9657828155600101610c83565b5050505b505050565b815167ffffffffffffffff811115610cb957610cb9610c3d565b610ccd81610cc78454610be1565b84610c51565b602080601f831160018114610d00575f8415610ce95750858301515b5f19600386901b1c1916600185901b178555610c96565b5f85815260208120601f198616915b82811015610d2e57888601518255948401946001909101908401610d0f565b5085821015610d4b57878501515f19600388901b60f8161c191681555b5050505050600190811b01905550565b84815260606020820152826060820152828460808301375f608084830101525f6080601f19601f86011683010190508260408301529594505050505056fea2646970667358221220e4459827f7678d3b3334717342c600d1640594c912e4a1b18463a0d3c5210d1b64736f6c63430008140033","linkReferences":{}},"methodIdentifiers":{"authorizedNodes(address)":"7e53a740","getRequest(uint256)":"c58343ef","getResult(uint256)":"995e4339","inferenceFee()":"aabe7498","owner()":"8da5cb5b","requestInference(bytes32,string)":"e4943d7f","setInferenceFee(uint256)":"40726f15","setNodeAuthorization(address,bool)":"94a9b793","submitResult(uint256,bytes32,string)":"f3c0e479","totalRequests()":"8aea61dc","withdrawFees(address)":"164e68de"},"id":20}